{
  "contractName": "CrimeRegistry",
  "abi": [
    {
      "anonymous": false,
      "inputs": [
        {
          "indexed": false,
          "internalType": "uint256",
          "name": "reportId",
          "type": "uint256"
        },
        {
          "indexed": false,
          "internalType": "string",
          "name": "ipfsHash",
          "type": "string"
        },
        {
          "indexed": false,
          "internalType": "string",
          "name": "timestamp",
          "type": "string"
        },
        {
          "indexed": false,
          "internalType": "address",
          "name": "reporter",
          "type": "address"
        }
      ],
      "name": "CrimeReported",
      "type": "event"
    },
    {
      "inputs": [],
      "name": "reportCount",
      "outputs": [
        {
          "internalType": "uint256",
          "name": "",
          "type": "uint256"
        }
      ],
      "stateMutability": "view",
      "type": "function",
      "constant": true
    },
    {
      "inputs": [
        {
          "internalType": "uint256",
          "name": "",
          "type": "uint256"
        }
      ],
      "name": "reports",
      "outputs": [
        {
          "internalType": "string",
          "name": "ipfsHash",
          "type": "string"
        },
        {
          "internalType": "string",
          "name": "timestamp",
          "type": "string"
        },
        {
          "internalType": "address",
          "name": "reporter",
          "type": "address"
        }
      ],
      "stateMutability": "view",
      "type": "function",
      "constant": true
    },
    {
      "inputs": [
        {
          "internalType": "string",
          "name": "_ipfsHash",
          "type": "string"
        },
        {
          "internalType": "string",
          "name": "_timestamp",
          "type": "string"
        }
      ],
      "name": "addCrimeReport",
      "outputs": [],
      "stateMutability": "nonpayable",
      "type": "function"
    },
    {
      "inputs": [
        {
          "internalType": "uint256",
          "name": "_reportId",
          "type": "uint256"
        }
      ],
      "name": "getCrimeReport",
      "outputs": [
        {
          "internalType": "string",
          "name": "",
          "type": "string"
        },
        {
          "internalType": "string",
          "name": "",
          "type": "string"
        },
        {
          "internalType": "address",
          "name": "",
          "type": "address"
        }
      ],
      "stateMutability": "view",
      "type": "function",
      "constant": true
    }
  ],
  "bytecode": "0x608060405234801561001057600080fd5b50610a4f806100206000396000f3fe608060405234801561001057600080fd5b506004361061004c5760003560e01c8063185c6f84146100515780632e459c401461006f578063c942adf7146100a1578063f601ac46146100d3575b600080fd5b6100596100ef565b6040516100669190610780565b60405180910390f35b610089600480360381019061008491906106bb565b6100f5565b6040516100989392919061073b565b60405180910390f35b6100bb60048036038101906100b691906106bb565b6102b1565b6040516100ca9392919061073b565b60405180910390f35b6100ed60048036038101906100e8919061064f565b61040b565b005b60015481565b606080600080600080868152602001908152602001600020604051806060016040529081600082018054610128906108e9565b80601f0160208091040260200160405190810160405280929190818152602001828054610154906108e9565b80156101a15780601f10610176576101008083540402835291602001916101a1565b820191906000526020600020905b81548152906001019060200180831161018457829003601f168201915b505050505081526020016001820180546101ba906108e9565b80601f01602080910402602001604051908101604052809291908181526020018280546101e6906108e9565b80156102335780601f1061020857610100808354040283529160200191610233565b820191906000526020600020905b81548152906001019060200180831161021657829003601f168201915b505050505081526020016002820160009054906101000a900473ffffffffffffffffffffffffffffffffffffffff1673ffffffffffffffffffffffffffffffffffffffff1673ffffffffffffffffffffffffffffffffffffffff16815250509050806000015181602001518260400151935093509350509193909250565b60006020528060005260406000206000915090508060000180546102d4906108e9565b80601f0160208091040260200160405190810160405280929190818152602001828054610300906108e9565b801561034d5780601f106103225761010080835404028352916020019161034d565b820191906000526020600020905b81548152906001019060200180831161033057829003601f168201915b505050505090806001018054610362906108e9565b80601f016020809104026020016040519081016040528092919081815260200182805461038e906108e9565b80156103db5780601f106103b0576101008083540402835291602001916103db565b820191906000526020600020905b8154815290600101906020018083116103be57829003601f168201915b5050505050908060020160009054906101000a900473ffffffffffffffffffffffffffffffffffffffff16905083565b6001600081548092919061041e9061091b565b919050555060405180606001604052808381526020018281526020013373ffffffffffffffffffffffffffffffffffffffff168152506000806001548152602001908152602001600020600082015181600001908051906020019061048492919061052f565b5060208201518160010190805190602001906104a192919061052f565b5060408201518160020160006101000a81548173ffffffffffffffffffffffffffffffffffffffff021916908373ffffffffffffffffffffffffffffffffffffffff1602179055509050507fdebd418b30c90d29fa6be3abd7c6f7d11520b54f843e58d8fdf99c6a55a80cc5600154838333604051610523949392919061079b565b60405180910390a15050565b82805461053b906108e9565b90600052602060002090601f01602090048101928261055d57600085556105a4565b82601f1061057657805160ff19168380011785556105a4565b828001600101855582156105a4579182015b828111156105a3578251825591602001919060010190610588565b5b5090506105b191906105b5565b5090565b5b808211156105ce5760008160009055506001016105b6565b5090565b60006105e56105e08461081f565b6107ee565b9050828152602081018484840111156105fd57600080fd5b6106088482856108a7565b509392505050565b600082601f83011261062157600080fd5b81356106318482602086016105d2565b91505092915050565b60008135905061064981610a02565b92915050565b6000806040838503121561066257600080fd5b600083013567ffffffffffffffff81111561067c57600080fd5b61068885828601610610565b925050602083013567ffffffffffffffff8111156106a557600080fd5b6106b185828601610610565b9150509250929050565b6000602082840312156106cd57600080fd5b60006106db8482850161063a565b91505092915050565b6106ed8161086b565b82525050565b60006106fe8261084f565b610708818561085a565b93506107188185602086016108b6565b610721816109f1565b840191505092915050565b6107358161089d565b82525050565b6000606082019050818103600083015261075581866106f3565b9050818103602083015261076981856106f3565b905061077860408301846106e4565b949350505050565b6000602082019050610795600083018461072c565b92915050565b60006080820190506107b0600083018761072c565b81810360208301526107c281866106f3565b905081810360408301526107d681856106f3565b90506107e560608301846106e4565b95945050505050565b6000604051905081810181811067ffffffffffffffff82111715610815576108146109c2565b5b8060405250919050565b600067ffffffffffffffff82111561083a576108396109c2565b5b601f19601f8301169050602081019050919050565b600081519050919050565b600082825260208201905092915050565b60006108768261087d565b9050919050565b600073ffffffffffffffffffffffffffffffffffffffff82169050919050565b6000819050919050565b82818337600083830152505050565b60005b838110156108d45780820151818401526020810190506108b9565b838111156108e3576000848401525b50505050565b6000600282049050600182168061090157607f821691505b6020821081141561091557610914610993565b5b50919050565b60006109268261089d565b91507fffffffffffffffffffffffffffffffffffffffffffffffffffffffffffffffff82141561095957610958610964565b5b600182019050919050565b7f4e487b7100000000000000000000000000000000000000000000000000000000600052601160045260246000fd5b7f4e487b7100000000000000000000000000000000000000000000000000000000600052602260045260246000fd5b7f4e487b7100000000000000000000000000000000000000000000000000000000600052604160045260246000fd5b6000601f19601f8301169050919050565b610a0b8161089d565b8114610a1657600080fd5b5056fea2646970667358221220a6322f29b38176272fffdb1dc8940da600d40d4293ef157e4a62ebc45c04000164736f6c63430008000033",
  "immutableReferences": {},
  "source": "// SPDX-License-Identifier: MIT\r\npragma solidity ^0.8.0;\r\n\r\ncontract CrimeRegistry {\r\n    struct CrimeReport {\r\n        string ipfsHash; // IPFS hash of the crime data\r\n        string timestamp; // Date and time of crime\r\n        address reporter; // Address of the person reporting\r\n    }\r\n\r\n    mapping(uint256 => CrimeReport) public reports;\r\n    uint256 public reportCount;\r\n\r\n    event CrimeReported(uint256 reportId, string ipfsHash, string timestamp, address reporter);\r\n\r\n    // Function to add a new crime report\r\n    function addCrimeReport(string memory _ipfsHash, string memory _timestamp) public {\r\n        reportCount++;\r\n        reports[reportCount] = CrimeReport({\r\n            ipfsHash: _ipfsHash,\r\n            timestamp: _timestamp,\r\n            reporter: msg.sender\r\n        });\r\n\r\n        emit CrimeReported(reportCount, _ipfsHash, _timestamp, msg.sender);\r\n    }\r\n\r\n    // Function to retrieve a report by ID\r\n    function getCrimeReport(uint256 _reportId) public view returns (string memory, string memory, address) {\r\n        CrimeReport memory report = reports[_reportId];\r\n        return (report.ipfsHash, report.timestamp, report.reporter);\r\n    }\r\n}\r\n",
  "sourcePath": "D:\\SnatchLock\\snatchlock\\contracts\\evidenceInfo.sol",
  "compiler": {
    "name": "solc",
    "version": "0.8.0+commit.c7dfd78e.Emscripten.clang"
  },
  "schemaVersion": "3.4.16",
  "updatedAt": "2025-05-11T14:57:41.617Z",
  "networkType": "ethereum",
  "devdoc": {
    "kind": "dev",
    "methods": {},
    "version": 1
  },
  "userdoc": {
    "kind": "user",
    "methods": {},
    "version": 1
  }
}